:100000000C942A000C9447000C9447000C94470071
:100010000C9447000C9437060C9447000C9447004E
:100020000C9447000C9447000C9447000C94470034
:100030000C9447000C9447000C9447000C94470024
:100040000C9447000C9447000C9447000C94470014
:100050000C94470011241FBECFE5D8E0DEBFCDBF12
:1000600010E0A0E6B0E0E6EAFDE002C005900D92E7
:10007000AC3BB107D9F710E0ACEBB0E001C01D928A
:10008000A23CB107E1F70E947D040C94D1060C94C8
:100090000000823451F1833420F4813409F07BC0B4
:1000A00007C0833409F43EC0843409F074C057C0DB
:1000B000413069F42AB381E090E0AC0102C0440F02
:1000C000551F6A95E2F7BA01622B6ABB08952AB3FD
:1000D00081E090E0AC0102C0440F551F6A95E2F741
:1000E000BA01609562236ABB0895413069F427B371
:1000F00081E090E0AC0102C0440F551F6A95E2F721
:10010000BA01622B67BB089527B381E090E0AC0190
:1001100002C0440F551F6A95E2F7BA016095622349
:1001200067BB0895413069F424B381E090E0AC01ED
:1001300002C0440F551F6A95E2F7BA01622B64BBF7
:10014000089524B381E090E0AC0102C0440F551F34
:100150006A95E2F7BA016095622364BB0895413065
:1001600069F421B381E090E0AC0102C0440F551F57
:100170006A95E2F7BA01622B61BB089521B381E071
:1001800090E0AC0102C0440F551F6A95E2F7BA0136
:100190006095622361BB0895823451F1833420F469
:1001A000813409F07BC007C0833409F43EC0843435
:1001B00009F074C057C0413069F42BB381E090E07E
:1001C000AC0102C0440F551F6A95E2F7BA01622BD9
:1001D0006BBB08952BB381E090E0AC0102C0440FEB
:1001E000551F6A95E2F7BA01609562236BBB0895CB
:1001F000413069F428B381E090E0AC0102C0440FC3
:10020000551F6A95E2F7BA01622B68BB089528B3BF
:1002100081E090E0AC0102C0440F551F6A95E2F7FF
:10022000BA016095622368BB0895413069F425B333
:1002300081E090E0AC0102C0440F551F6A95E2F7DF
:10024000BA01622B65BB089525B381E090E0AC0153
:1002500002C0440F551F6A95E2F7BA016095622308
:1002600065BB0895413069F422B381E090E0AC01B0
:1002700002C0440F551F6A95E2F7BA01622B62BBB8
:10028000089522B381E090E0AC0102C0440F551FF5
:100290006A95E2F7BA016095622362BB08958234E1
:1002A000F1F0833420F4813409F04FC006C0833468
:1002B00041F1843409F049C036C029B381E090E0AF
:1002C000062E02C0880F991F0A94E2F730E08223BD
:1002D000932302C0959587956A95E2F7089526B312
:1002E00081E090E0062E02C0880F991F0A94E2F781
:1002F00030E08223932302C0959587956A95E2F7B3
:10030000089523B381E090E0062E02C0880F991F64
:100310000A94E2F730E08223932302C095958795F3
:100320006A95E2F7089520B381E090E0062E02C0BE
:10033000880F991F0A94E2F730E08223932302C0CA
:10034000959587956A95E2F7089580E0089582343F
:10035000B9F0833418F48134C9F505C08334E9F069
:100360008434A1F527C02BB381E090E0AC0102C03A
:10037000440F551F6A95E2F7BA0162276BBB0895D7
:1003800028B381E090E0AC0102C0440F551F6A958C
:10039000E2F7BA01622768BB089525B381E090E0D7
:1003A000AC0102C0440F551F6A95E2F7BA016227FB
:1003B00065BB089522B381E090E0AC0102C0440F18
:1003C000551F6A95E2F7BA01622762BB089582342D
:1003D00061F0833418F4813469F405C0833439F052
:1003E000843441F406C06ABB089567BB089564BBBA
:1003F000089561BB0895823461F0833418F4813428
:1004000069F405C0833439F0843441F406C06BBB11
:10041000089568BB089565BB089562BB0895823452
:1004200061F0833418F4813471F405C0833439F0F9
:10043000843449F406C089B3089586B3089583B31C
:10044000089580B3089580E00895823451F1833493
:1004500020F4813409F07BC007C0833409F43EC026
:10046000843409F074C057C0413069F42BB381E083
:1004700090E0AC0102C0440F551F6A95E2F7BA0143
:10048000622B6BBB08952BB381E090E0AC0102C0FE
:10049000440F551F6A95E2F7BA01609562236BBB62
:1004A0000895413069F428B381E090E0AC0102C0C6
:1004B000440F551F6A95E2F7BA01622B68BB089595
:1004C00028B381E090E0AC0102C0440F551F6A954B
:1004D000E2F7BA016095622368BB0895413069F480
:1004E00025B381E090E0AC0102C0440F551F6A952E
:1004F000E2F7BA01622B65BB089525B381E090E075
:10050000AC0102C0440F551F6A95E2F7BA0160952D
:10051000622365BB0895413069F422B381E090E025
:10052000AC0102C0440F551F6A95E2F7BA01622B75
:1005300062BB089522B381E090E0AC0102C0440F99
:10054000551F6A95E2F7BA016095622362BB089570
:100550006F70823481F0833418F48134F1F405C073
:10056000833479F08434C9F412C08BB3807F8BBBA1
:100570008BB3862B8BBB88B3807F88BB88B3862BDD
:1005800088BB85B3807F85BB85B3862B85BB82B353
:10059000807F82BB82B3682B62BB08956295607FC7
:1005A000823481F0833418F48134F1F405C083344B
:1005B00079F08434C9F412C08BB38F708BBB8BB3CA
:1005C000862B8BBB88B38F7088BB88B3862B88BB88
:1005D00085B38F7085BB85B3862B85BB82B38F7047
:1005E00082BB82B3682B62BB089584E460E041E083
:1005F0000E94490084E461E041E00E94490084E4F3
:1006000062E041E00E94490084E463E041E00E942E
:10061000490084E464E040E00E94490084E465E02D
:1006200040E00E94490084E466E040E00E94490006
:1006300084E467E040E00E94490084E464E041E033
:100640000E94250284E465E041E00E94250284E4E2
:1006500066E041E00E94250284E467E041E00E94F8
:10066000250208950F931F93CF93DF93CDB7DEB785
:1006700060970FB6F894DEBF0FBECDBFDE011196B6
:10068000E0E6F0E080E101900D928150E1F700E0BA
:1006900084E460E041E00E94CC0084E461E041E059
:1006A0000E94CC0084E462E041E00E94CC0084E43B
:1006B00063E041E00E94CC0084E4602F40E00E94AF
:1006C000CC0010E0612F6C5F84E40E944F0188230E
:1006D00061F4E02FF0E0EE0FFF1FEE0FFF1FE10FC0
:1006E000F11DEC0FFD1F818104C01F5F143051F715
:1006F0000BC060960FB6F894DEBF0FBECDBFDF9182
:10070000CF911F910F9108950F5F043009F68FEF7D
:10071000F0CF81E460E041E00E94CC008FE99FE0EF
:100720000197F1F700C0000081E460E040E00E9422
:10073000CC008FE99FE00197F1F700C00000089519
:10074000CF93C82F682F62956F7081E40E94CE020C
:1007500081E462E040E00E94CC000E94890381E4D1
:100760006C2F0E94CE0281E462E040E00E94CC0047
:100770000E9489038FEC97E00197F1F700C0000019
:10078000CF9108958FEF91EEA4E081509040A0406A
:10079000E1F700C0000081E464E041E00E9449000C
:1007A00081E465E041E00E94490081E466E041E0C7
:1007B0000E94490081E467E041E00E94490081E431
:1007C00060E041E00E94490081E461E041E00E9474
:1007D000490081E462E041E00E94490081E461E077
:1007E00040E00E94CC0082E00E94A003AFE1BEE4A2
:1007F0001197F1F700C0000088E20E94A0038FEC7F
:1008000097E00197F1F700C000008EE00E94A0037E
:10081000AFECB7E01197F1F700C0000081E00E9453
:10082000A0038FE19EE40197F1F700C0000086E08D
:100830000E94A003AFECB7E01197F1F700C00000F1
:100840000895CF93C82F682F62956F7081E40E943E
:10085000CE0281E462E041E00E94CC000E94890364
:1008600081E46C2F0E94CE0281E462E041E00E94AC
:10087000CC000E9489038FEC97E00197F1F700C04C
:100880000000CF910895CF93DF93EC0188818823F6
:1008900031F021960E94210489918823D9F7DF91B4
:1008A000CF91089581E00E94A0038FE19EE401971B
:1008B000F1F700C000000895282F2150223070F475
:1008C000613170F4662371F0813019F4962F9158DC
:1008D0000AC0823041F4962F915405C090E803C0BD
:1008E00090E801C090E8892F0E94A0038FEC97E068
:1008F0000197F1F700C0000008950E94F5020E94E0
:10090000C20382E40E944806A09AA19AA29AA39ADE
:10091000A49AA59A80E790E00E94430482E061E0F7
:100920000E945C048BE790E00E9443040E946E06E4
:100930000F2EF4EACF2EF0E0DF2EF02D00E710E0CE
:100940000F2EFBE7EF2EF0E0FF2EF02D0F2EF5E837
:10095000AF2EF0E0BF2EF02D0F2EFEE88F2EF0E030
:100960009F2EF02D0F2EF9E96F2EF0E07F2EF02D47
:10097000CAE00E9432038093C1008F3F09F4DBC0BC
:10098000813309F0BEC00E945204C5010E94430495
:1009900081E067E00E945C048FEF94E3ACE081505B
:1009A0009040A040E1F700C000000E943203809315
:1009B000BF008F3FD1F30E9421048FEF92E5A7E0A3
:1009C00081509040A040E1F700C000000E94320337
:1009D0008093C0008F3FD1F30E9421048FEF92E5F6
:1009E000A7E081509040A040E1F700C00000909146
:1009F000C00090518091BF00880F282F220F220F36
:100A0000820F890F8093BC000E945204C4010E948F
:100A1000430481E069E00E945C040E9432038093F9
:100A2000BF008F3FD1F30E9421048FEF92E5A7E032
:100A300081509040A040E1F700C000000E943203C6
:100A40008093C0008F3FD1F30E9421048FEF92E585
:100A5000A7E081509040A040E1F700C000009091D5
:100A6000C00090518091BF00880F282F220F220FC5
:100A7000820F890F8093BD000E945204C3010E941F
:100A8000430481E069E00E945C040E943203809389
:100A9000BF008F3FD1F30E9421048FEF92E5A7E0C2
:100AA00081509040A040E1F700C000000E94320356
:100AB0008093C0008F3FD1F30E9421048FEF92E515
:100AC000A7E081509040A040E1F700C00000909165
:100AD000C00090518091BF00880F282F220F220F55
:100AE000820F890F8093BE000E945204C8010E94A9
:100AF000430482E061E00E945C04C7010E94430459
:100B00001AC00E945204C6010E9443048FEF99E666
:100B1000A8E181509040A040E1F700C000000E9491
:100B20005204C8010E94430482E061E00E945C0418
:100B3000C7010E944304A99AAA9AAB9AAC9AAD9AAB
:100B4000A8988091BE006C2F0E94C50682E4692F90
:100B50000E944C06AFE0B7E21197F1F700C0000029
:100B6000A89AAA9AAB9AAC9AAD9AA9988091BE001D
:100B70006C2F0E94C506682F82E40E944C068FE00D
:100B800097E20197F1F700C00000A89AA99AAB9AE2
:100B9000AC9AAD9AAA988091BD006C2F0E94C506B0
:100BA00082E4692F0E944C06AFE0B7E21197F1F79B
:100BB00000C00000A89AA99AAA9AAC9AAD9AAB98DC
:100BC0008091BD006C2F0E94C506682F82E40E94B0
:100BD0004C068FE097E20197F1F700C00000A89A59
:100BE000A99AAA9AAB9AAD9AAC988091BC006C2F46
:100BF0000E94C50682E4692F0E944C06AFE0B7E26E
:100C00001197F1F700C00000A89AA99AAA9AAB9A86
:100C1000AC9AAD988091BC006C2F0E94C506682FDD
:100C200082E40E944C068FE097E20197F1F700C042
:100C300000008091BE008C3339F41092BE00809188
:100C4000BD008F5F8093BD008091BD008C3339F46F
:100C50001092BD008091BC008F5F8093BC0080919A
:100C6000BC00883109F085CE1092BC0082CE1F9264
:100C70000F920FB60F9211248F938091BE008F5F59
:100C80008093BE008F910F900FBE0F901F9018950C
:100C90006FEF0E94E7010895CF93DF93CDB7DEB7E2
:100CA0002A970FB6F894DEBF0FBECDBFDE011196B6
:100CB000E1EBF0E09AE001900D929150E1F7FE0136
:100CC000E60FF11D61810E94FB012A960FB6F89490
:100CD000DEBF0FBECDBFDF91CF91089582B5886092
:100CE00082BD85B5816085BD85B5846085BD7894FC
:100CF00089B7806489BF089583B7886083BF80E522
:100D00008CBF83B7816083BF83B7846083BF7894CF
:100D100089B7826089BF0895BB9A83B7886083BF13
:100D200080E48CBF83B7816083BF83B7846083BF57
:100D300083B7806183BF0895BB9A83B7806483BF04
:100D400083B7886083BF80E48CBF83B7816083BF33
:100D500083B7846083BF83B7806183BF83B78062BA
:100D600083BF0895BB9A83B7806483BF80E48CBF40
:100D700083B7816083BF83B7846083BF83B780619B
:100D800083BF83B7806283BF0895991B79E004C055
:100D9000991F961708F0961B881F7A95C9F78095BA
:060DA0000895F894FFCF56
:100DA6003738392F3435362A3132332D41303D2B01
:100DB6007072657373203120746F007365742063DD
:100DC6006C6F636B00686F7572733D2D2D006D69D6
:100DD6006E757465733D2D2D007365636F6E647358
:100DE6003D2D2D0077726F6E672063686F696365AE
:0C0DF600003F065B4F666D7D477F6F007D
:00000001FF
